S0150000747261666669635F6C696768742E73726563B9
S11300000C942A000C946E010C943C000C943C005B
S11300100C943C000C943C000C943C000C943C006C
S11300200C943C000C943C000C943C000C943C005C
S11300300C943C000C943C000C943C000C943C004C
S11300400C943C000C943C000C943C000C943C003C
S11300500C943C0011241FBECFE5D8E0DEBFCDBF19
S113006020E0A0E6B0E001C01D92AE36B207E1F791
S11300700E94B8010C945C060C94000063E080E0DC
S11300800E94BF0142E063E088E690E00E94920192
S113009040E060E086E690E00E949B0141E060E081
S11300A080E690E00E949B0142E060E08AE690E0F6
S11300B00E949B0140E061E084E690E00E949B0185
S11300C041E061E082E690E00E949B0142E061E051
S11300D08CE690E00E949B0108950F931F93CF93A9
S11300E0C82F00E010E046C0C13049F018F0C2301B
S11300F059F012C080E690E00E94A4010DC082E68F
S113010090E00E94A40108C080E690E00E94A4014F
S113011082E690E00E94A40124EF31E040E050E048
S113012060E070E080E090E00E944E03C13049F04E
S113013018F0C23059F012C080E690E00E94AB0182
S11301400DC082E690E00E94AB0108C080E690E01A
S11301500E94AB0182E690E00E94AB0124EF31E003
S113016040E050E060E070E080E090E00E944E03E8
S11301700F5F1F4F053011050CF4B6CFCF911F91BF
S11301800F91089584E690E00E94A40128E833E1E9
S113019040E050E060E070E080E090E00E944E03B8
S11301A084E690E00E94AB0181E00E946D0082E64B
S11301B090E00E94AB018CE690E00E94A40128E844
S11301C033E140E050E060E070E080E090E00E94C5
S11301D04E038CE690E00E94AB0108950E94C20099
S11301E0FDCF8CE690E00E94B2018823B9F086E648
S11301F090E00E94A4018CE690E00E94A40128E80B
S113020033E140E050E060E070E080E090E00E9484
S11302104E0386E690E00E94AB01089584E690E0E8
S11302200E94B2018823E1F18AE690E00E94A401D1
S113023084E690E00E94A40128E833E140E050E025
S113024060E070E080E090E00E944E038AE690E077
S11302500E94AB0184E690E00E94AB0182E00E9420
S11302606D008CE690E00E94A40186E690E00E9476
S1130270A40128E833E140E050E060E070E080E071
S113028090E00E944E0386E690E00E94AB018CE66B
S113029090E00E94AB0184E690E00E94A4010895DE
S11302A082E00E946D008CE690E00E94A40186E644
S11302B090E00E94A40128E833E140E050E060E0CF
S11302C070E080E090E00E944E0386E690E00E9499
S11302D0AB018CE690E00E94AB0108951F920F924F
S11302E00FB60F9211242F933F934F935F936F9305
S11302F07F938F939F93AF93BF93EF93FF930E944A
S1130300F100FF91EF91BF91AF919F918F917F91F8
S11303106F915F914F913F912F910F900FBE0F906E
S11303201F901895FC01862F642F8083418340E041
S11303300E9401020895FC01862F642F808341836B
S113034042E00E940102089541E0FC016181808144
S11303500E94B302089540E0FC01618180810E9403
S1130360B3020895FC01618180810E9420030895F5
S11303700E943E000E94EE0080E090E008959FB746
S113038090689FBF8130D1F018F0823069F10895F0
S113039060FF04C085B7816085BF03C085B78E7FC9
S11303A085BF61FF04C085B7826085BF03C085B780
S11303B08D7F85BF8BB780648BBF089560FF04C0B9
S11303C085B7846085BF03C085B78B7F85BF61FF18
S11303D004C085B7886085BF03C085B7877F85BFA4
S11303E08BB780688BBF089561FF04C084B78064B5
S11303F084BF03C084B78F7B84BF8BB780628BBFFD
S11304000895813091F138F0823009F458C0833076
S113041009F47FC0089541110CC02AB381E090E033
S113042002C0880F991F6A95E2F7809582238ABBE0
S11304300895413079F42AB381E090E002C0880F36
S1130440991F6A95E2F7809582238ABB80B78460FE
S113045080BF08952AB381E090E002C0880F991FFD
S11304606A95E2F7822B8ABB089541110CC027B329
S113047081E090E002C0880F991F6A95E2F78095A9
S1130480822387BB0895413079F427B381E090E05B
S113049002C0880F991F6A95E2F78095822387BB73
S11304A080B7846080BF089527B381E090E002C0E4
S11304B0880F991F6A95E2F7822B87BB0895411133
S11304C00CC024B381E090E002C0880F991F6A95A4
S11304D0E2F78095822384BB0895413079F424B3F4
S11304E081E090E002C0880F991F6A95E2F7809539
S11304F0822384BB80B7846080BF089524B381E0E5
S113050090E002C0880F991F6A95E2F7822B84BBA2
S1130510089541110CC021B381E090E002C0880F1E
S1130520991F6A95E2F78095822381BB0895413033
S113053079F421B381E090E002C0880F991F6A9595
S1130540E2F78095822381BB80B7846080BF0895E1
S113055021B381E090E002C0880F991F6A95E2F709
S1130560822B81BB0895813001F130F08230B1F1EA
S1130570833009F44CC0089541110CC02BB381E0C1
S113058090E002C0880F991F6A95E2F78095822354
S11305908BBB08952BB381E090E002C0880F991FB4
S11305A06A95E2F7822B8BBB089541110CC028B3E6
S11305B081E090E002C0880F991F6A95E2F7809568
S11305C0822388BB089528B381E090E002C0880F9D
S11305D0991F6A95E2F7822B88BB089541110CC0DC
S11305E025B381E090E002C0880F991F6A95E2F775
S11305F08095822385BB089525B381E090E002C0F5
S1130600880F991F6A95E2F7822B85BB08954111E3
S11306100CC022B381E090E002C0880F991F6A9554
S1130620E2F78095822382BB089522B381E090E0B3
S113063002C0880F991F6A95E2F7822B82BB089546
S1130640813079F028F08230A9F08330E1F024C0C1
S113065089B390E002C0959587956A95E2F7817019
S1130660089586B390E002C0959587956A95E2F760
S11306708170089583B390E002C0959587956A953B
S1130680E2F78170089580B390E002C09595879554
S11306906A95E2F78170089580E008954F925F9221
S11306A06F927F928F929F92AF92BF92CF92DF927E
S11306B0EF92FF920F931F93CF93DF9300D000D05C
S11306C000D0CDB7DEB70E94670569837A838B8338
S11306D09C832FE632E143E85EE30E948A040E9491
S11306E073040E940105F22E032F142FE52ED62E3B
S11306F0C72EB82EA92E2D833E83942E852E762EBA
S1130700672E582E492EA1E00E945006B1F429818B
S11307103A814B815C816FE672E183E89EE30E943B
S113072006042DEB37E346E855E30E948A040E9451
S113073073040E943805A62F2DC02DEB37E346E83D
S113074055E369817A818B819C810E948A04698343
S11307507A838B839C832F2D302F412F5E2D6D2D1B
S11307607C2D8B2D9A2D0E9467059B01AC0169811C
S11307707A818B819C810E948A049B01AC016FE683
S113078072E183E89EE30E9406040E9473040E94BF
S11307903805A62F13BE83B7816083BFE0E0F0E085
S11307A008C0A2BF08B600FEFDCF88B7816088BF2D
S11307B031962D813E81492D582D672D762D852D1D
S11307C0942DAE2EBF2E1F2F110F110BC12ED12E23
S11307D0E12EF12E012F0E94470609F010F726960C
S11307E00FB6F894DEBF0FBECDBFDF91CF911F913E
S11307F00F91FF90EF90DF90CF90BF90AF909F90BC
S11308008F907F906F905F904F9008955058BB27C2
S1130810AA270E941E040C94F5050E94E70538F0EF
S11308200E94EE0520F039F49F3F19F426F40C944D
S1130830D4050EF4E095E7FB0C94A505E92F0E947E
S1130840060658F3BA17620773078407950720F062
S113085079F4A6F50C9440060EF4E0950B2EBA2F0D
S1130860A02D0B01B90190010C01CA01A0011124B2
S1130870FF27591B99F0593F50F4503E68F11A165E
S1130880F040A22F232F342F4427585FF3CF4695EF
S113089037952795A795F0405395C9F77EF41F1611
S11308A0BA0B620B730B840BBAF09150A1F0FF0FDB
S11308B0BB1F661F771F881FC2F70EC0BA0F621FC7
S11308C0731F841F48F4879577956795B795F795B7
S11308D09E3F08F0B0CF9395880F08F09927EE0F4C
S11308E09795879508950E94280690F09F3748F4BD
S11308F0911116F40C94410660E070E080E89FE3E7
S1130900089526F01B16611D711D811D0C94AB0505
S11309100C94C6050E949E040C94F5050E94EE05F5
S113092058F00E94E70540F029F45F3F29F00C9449
S1130930A50551110C9441060C94D4050E94060699
S113094068F39923B1F3552391F3951B550BBB27FA
S1130950AA2762177307840738F09F5F5F4F220F3F
S1130960331F441FAA1FA9F335D00E2E3AF0E0E836
S113097032D091505040E695001CCAF72BD0FE2F80
S113098029D0660F771F881FBB1F26173707480714
S1130990AB07B0E809F0BB0B802DBF01FF279358CC
S11309A05F4F3AF09E3F510578F00C94A5050C94E6
S11309B041065F3FE4F3983ED4F3869577956795B7
S11309C0B795F7959F5FC9F7880F911D9695879501
S11309D097F90895E1E0660F771F881FBB1F621720
S11309E073078407BA0720F0621B730B840BBA0BDE
S11309F0EE1F88F7E0950895BEE304D008F490E86C
S1130A000895BFE322273327A9010E940E0660F14F
S1130A109F5748F1B91740F1BFE3B91B9927B85064
S1130A203AF4660F771F881F991FB395D2F316C047
S1130A30B8504AF0232F342F452F562F672F782F85
S1130A408827B850BAF7B85F49F0869577956795C7
S1130A505795479537952795BA95B9F716F40E9497
S1130A60D70588940895889460E070E0CB010895D8
S1130A700E940E0688F09F5798F0B92F9927B75116
S1130A80B0F0E1F0660F771F881F991F1AF0BA952E
S1130A90C9F714C0B13091F00E944006B1E0089546
S1130AA00C944006672F782F8827B85F39F0B93F38
S1130AB0CCF3869577956795B395D9F73EF49095E1
S1130AC08095709561957F4F8F4F9F4F0895E8945F
S1130AD0F92F96EBFF2381F0121613061406440B2C
S1130AE09395F69587957795679557954040FF239D
S1130AF0B9F71BC099270895882351F49850D2F769
S1130B00872B762F652F542F432F322F20E0B1F3FC
S1130B10121613061406440B88233AF09A95440FD0
S1130B20551F661F771F881FCAF755234AF4440FC1
S1130B30551F11F460FF04C06F5F7F4F8F4F9F4FAD
S1130B40880F9695879597F9089597F99F6780E898
S1130B5070E060E00895882371F4772321F09850C1
S1130B60872B762F07C0662311F499270DC0905167
S1130B70862B70E060E02AF09A95660F771F881F35
S1130B80DAF7880F9695879597F908959F3F31F086
S1130B90915020F4879577956795B795880F911DA7
S1130BA09695879597F908959FEF80EC0895909511
S1130BB080957095609550954095309521953F4F5F
S1130BC04F4F5F4F6F4F7F4F8F4F9F4F08950024BC
S1130BD00A941616170618060906089500240A949E
S1130BE012161306140605060895092E0394000C24
S1130BF011F4882352F0BB0F40F4BF2B11F460FFB3
S1130C0004C06F5F7F4F8F4F9F4F089557FD9058DB
S1130C10440F551F59F05F3F71F04795880F97FBBC
S1130C20991F61F09F3F79F0879508951216130676
S1130C301406551FF2CF4695F1DF08C016161706A5
S1130C401806991FF1CF86957105610508940895DA
S1130C500E940E06A0F0BEE7B91788F4BB279F38A0
S1130C6060F41616B11D672F782F8827985FF7CF89
S1130C70869577956795B11D93959639C8F3089530
S1130C80E894BB2766277727CB0197F908952A159F
S1130C903B054C055D056E057F05800791070895AA
S1130CA00024A7FD00942A1730054005500560056F
S10F0CB07005800590050895F894FFCFAE
S9030000FC
